{"abi":[{"type":"function","name":"campaignKeyForId","inputs":[{"name":"campaignId","type":"string","internalType":"string"}],"outputs":[{"name":"","type":"bytes32","internalType":"bytes32"}],"stateMutability":"pure"},{"type":"function","name":"createCampaign","inputs":[{"name":"campaignId","type":"string","internalType":"string"},{"name":"name","type":"string","internalType":"string"},{"name":"campaignCreatorAddress","type":"address","internalType":"address"},{"name":"merkleRoot","type":"string","internalType":"string"},{"name":"depth","type":"uint256","internalType":"uint256"},{"name":"hashAlgorithm","type":"string","internalType":"string"},{"name":"leafEncoding","type":"string","internalType":"string"},{"name":"recipients","type":"address[]","internalType":"address[]"},{"name":"amounts","type":"uint256[]","internalType":"uint256[]"}],"outputs":[{"name":"campaignKey","type":"bytes32","internalType":"bytes32"}],"stateMutability":"nonpayable"},{"type":"function","name":"getCampaign","inputs":[{"name":"campaignKey","type":"bytes32","internalType":"bytes32"}],"outputs":[{"name":"","type":"tuple","internalType":"struct CampaignRegistry.Campaign","components":[{"name":"campaignId","type":"string","internalType":"string"},{"name":"name","type":"string","internalType":"string"},{"name":"creator","type":"address","internalType":"address"},{"name":"merkleRoot","type":"string","internalType":"string"},{"name":"leafCount","type":"uint256","internalType":"uint256"},{"name":"depth","type":"uint256","internalType":"uint256"},{"name":"hashAlgorithm","type":"string","internalType":"string"},{"name":"leafEncoding","type":"string","internalType":"string"},{"name":"exists","type":"bool","internalType":"bool"}]}],"stateMutability":"view"},{"type":"function","name":"getClaim","inputs":[{"name":"campaignKey","type":"bytes32","internalType":"bytes32"},{"name":"recipient","type":"address","internalType":"address"}],"outputs":[{"name":"","type":"tuple","internalType":"struct CampaignRegistry.Claim","components":[{"name":"amount","type":"uint256","internalType":"uint256"},{"name":"index","type":"uint256","internalType":"uint256"},{"name":"exists","type":"bool","internalType":"bool"}]}],"stateMutability":"view"},{"type":"function","name":"getCreatorCampaignKeys","inputs":[{"name":"creator","type":"address","internalType":"address"}],"outputs":[{"name":"","type":"bytes32[]","internalType":"bytes32[]"}],"stateMutability":"view"},{"type":"function","name":"getRecipientAt","inputs":[{"name":"campaignKey","type":"bytes32","internalType":"bytes32"},{"name":"index","type":"uint256","internalType":"uint256"}],"outputs":[{"name":"","type":"address","internalType":"address"}],"stateMutability":"view"},{"type":"function","name":"getRecipients","inputs":[{"name":"campaignKey","type":"bytes32","internalType":"bytes32"}],"outputs":[{"name":"","type":"address[]","internalType":"address[]"}],"stateMutability":"view"},{"type":"event","name":"CampaignCreated","inputs":[{"name":"campaignKey","type":"bytes32","indexed":true,"internalType":"bytes32"},{"name":"campaignId","type":"string","indexed":false,"internalType":"string"},{"name":"creator","type":"address","indexed":true,"internalType":"address"},{"name":"recipientCount","type":"uint256","indexed":false,"internalType":"uint256"}],"anonymous":false},{"type":"error","name":"CampaignAlreadyExists","inputs":[{"name":"campaignKey","type":"bytes32","internalType":"bytes32"}]},{"type":"error","name":"CampaignNotFound","inputs":[{"name":"campaignKey","type":"bytes32","internalType":"bytes32"}]},{"type":"error","name":"CreatorMismatch","inputs":[{"name":"expected","type":"address","internalType":"address"},{"name":"actual","type":"address","internalType":"address"}]},{"type":"error","name":"DuplicateRecipient","inputs":[{"name":"recipient","type":"address","internalType":"address"}]},{"type":"error","name":"InvalidAmount","inputs":[]},{"type":"error","name":"InvalidRecipient","inputs":[]},{"type":"error","name":"InvalidRecipientCount","inputs":[]},{"type":"error","name":"RecipientNotFound","inputs":[{"name":"campaignKey","type":"bytes32","internalType":"bytes32"},{"name":"recipient","type":"address","internalType":"address"}]}],"bytecode":{"object":"0x6080806040523460155761117d908161001a8239f35b5f80fdfe610160806040526004361015610013575f80fd5b5f3560e01c90816382b2b30614610e63575080639aac949414610d945780639d030de114610cbc578063ae718d2f14610c60578063cabe045214610a90578063d038eb98146100b85763d7bd27511461006a575f80fd5b346100b45760203660031901126100b4576004356001600160401b0381116100b4576100a661009f6020923690600401610f3c565b36916110f2565b818151910120604051908152f35b5f80fd5b346100b4576101203660031901126100b4576004356001600160401b0381116100b4576100e9903690600401610f3c565b61010052610140526024356001600160401b0381116100b457610110903690600401610f3c565b60443560e08190529091906001600160a01b03811690036100b4576064356001600160401b0381116100b45761014a903690600401610f3c565b929060a4356001600160401b0381116100b45761016b903690600401610f3c565b60c4356001600160401b0381116100b45761018a903690600401610f3c565b93909660e4356001600160401b0381116100b4576101ac903690600401610f69565b60c052608052610104356001600160401b0381116100b4576101d2903690600401610f69565b9060a052963360018060a01b0360e0511603610a6c5760c051158015610a60575b610a51576102083661010051610140516110f2565b6020815191012061012052610120515f525f60205260ff600860405f20015416610a3b57610120515f525f60205260405f20966001600160401b0361010051116104f657610256885461101a565b601f81116109e2575b505f601f610100511160011461096e575f9061010051610960575b506101005160011b905f196101005160031b1c19161788555b60018801916001600160401b0382116104f65781906102b2845461101a565b601f8111610907575b505f90601f83116001146108a0575f92610895575b50508160011b915f199060031b1c19161790555b6002860160018060a01b0360e051166bffffffffffffffffffffffff60a01b82541617905560038601916001600160401b0382116104f6578190610328845461101a565b601f811161083c575b505f90601f83116001146107d5575f926107ca575b50508160011b915f199060031b1c19161790555b60c0516004850155608435600585015560068401916001600160401b0382116104f6578190610389845461101a565b601f8111610771575b505f90601f831160011461070a575f926106ff575b50508160011b915f199060031b1c19161790555b60078201906001600160401b0381116104f6576103d8825461101a565b601f81116106ae575b505f601f8211600114610647578190600895965f9261063c575b50508160011b915f199060031b1c19161790555b01805460ff191660011790555f5b60c051811061050a5760e0516001600160a01b03165f9081526003602052604090208054600160401b8110156104f65761045c91600182018155610ff1565b81549060031b9061012051821b915f19901b191617905560405160408152610100516040820152610100516101405160608301375f6060610100518301015260c051602082015260018060a01b0360e05116907ff06e7326656aba6aa1b1843cb7fecf5ba35e15233a4c34c11deb25205faa7cd36101205191606081601f19601f6101005101168101030190a36020604051610120518152f35b634e487b7160e01b5f52604160045260245ffd5b6105198160c051608051611137565b356001600160a01b03811691908290036100b45761053a818460a051611137565b3591801561062d57821561061e57610120515f52600260205260405f20815f5260205260ff600260405f2001541661060c57610120515f52600160205260405f2092835490600160401b8210156104f65761059e8260019687600295018155610ff1565b81549060031b9085821b91888060a01b03901b1916179055604051906105c382610f99565b8152602081018481526040820193868552610120515f528360205260405f20905f5260205260405f20915182555185820155019051151560ff801983541691161790550161041d565b633e91857960e01b5f5260045260245ffd5b63162908e360e11b5f5260045ffd5b634e46966960e11b5f5260045ffd5b0135905086806103fb565b601f19821690835f5260205f20915f5b818110610696575096839291600194600898991061067d575b505050811b01905561040f565b01355f19600384901b60f8161c19169055868080610670565b9192602060018192868c013581550194019201610657565b818111156103e157825f5260205f20601f830160051c90602084106106f7575b81601f9101920160051c03905f5b8281106106ea5750506103e1565b5f828201556001016106dc565b5f91506106ce565b0135905087806103a7565b909150601f19831691845f5260205f20925f5b8181106107595750908460019594939210610740575b505050811b0190556103bb565b01355f19600384901b60f8161c19169055878080610733565b9193602060018192878701358155019501920161071d565b8281111561039257909150835f5260205f20601f840160051c90602085106107c2575b849392601f0160051c82900391015f5b8281106107b2575050610392565b5f818301558594506001016107a4565b5f9150610794565b013590508980610346565b909150601f19831691845f5260205f20925f5b818110610824575090846001959493921061080b575b505050811b01905561035a565b01355f19600384901b60f8161c191690558980806107fe565b919360206001819287870135815501950192016107e8565b8281111561033157909150835f5260205f20601f840160051c906020851061088d575b849392601f0160051c82900391015f5b82811061087d575050610331565b5f8183015585945060010161086f565b5f915061085f565b013590508b806102d0565b909150601f19831691845f5260205f20925f5b8181106108ef57509084600195949392106108d6575b505050811b0190556102e4565b01355f19600384901b60f8161c191690558b80806108c9565b919360206001819287870135815501950192016108b3565b828111156102bb57909150835f5260205f20601f840160051c9060208510610958575b849392601f0160051c82900391015f5b8281106109485750506102bb565b5f8183015585945060010161093a565b5f915061092a565b90506101405101358b61027a565b885f5260205f20905f5b61010051601f191681106109c7575061010051601f198116106109a8575b5050600161010051811b018855610293565b5f1960f86101005160031b161c19906101405101351690558a80610996565b90916020600181928561014051013581550193019101610978565b6101005181111561025f57885f5260205f20601f610100510160051c9060206101005110610a33575b5f5b82601f850160051c038110610a245750505061025f565b5f828401820155600101610a0d565b5f9150610a0b565b63495a9e0160e11b5f526101205160045260245ffd5b6306b1243960e11b5f5260045ffd5b508760c05114156101f3565b637cccf62b60e01b5f90815260e0516001600160a01b031660045233602452604490fd5b346100b45760203660031901126100b4576004355f610100604051610ab481610fb4565b60608152606060208201528260408201526060808201528260808201528260a0820152606060c0820152606060e08201520152805f525f60205260405f209060405191610b0083610fb4565b610b0981611052565b8352610b1760018201611052565b6020840190815260028201546001600160a01b03166040850190815290610b4060038401611052565b606086019081526004840154926080870193845260058501549160a08801928352610b6d60068701611052565b9360c0890194855260ff6008610b8560078a01611052565b9860e08c01998a52015416976101008a01981580158a52610c4e575092610c0d610c40969361014099989693610beb610c2c97610bd86040519e8f9e8f9160208352519161012060208201520190610f18565b90518d8203601f190160408f0152610f18565b91516001600160a01b031660608c0152518a8203601f190160808c0152610f18565b925160a08901525160c088015251868203601f190160e0880152610f18565b9051848203601f1901610100860152610f18565b905115156101208301520390f35b63ce1befcb60e01b5f5260045260245ffd5b346100b45760403660031901126100b457600435805f525f60205260ff600860405f2001541615610c4e575f5260016020526020610ca360243560405f20610ff1565b905460405160039290921b1c6001600160a01b03168152f35b346100b45760403660031901126100b4576024356001600160a01b03811690600435908290036100b4575f60408051610cf481610f99565b8281528260208201520152805f525f60205260ff600860405f2001541615610c4e57805f52600260205260405f20825f5260205260405f209060405191610d3a83610f99565b8054835260ff6002600183015492602086019384520154169160408401921580158452610d7d575060609350604051925183525160208301525115156040820152f35b84906331e0f51f60e11b5f5260045260245260445ffd5b346100b45760203660031901126100b457600435805f525f60205260ff600860405f2001541615610c4e575f52600160205260405f20604051806020835491828152019081935f5260205f20905f5b818110610e445750505081610df9910382610fd0565b604051918291602083019060208452518091526040830191905f5b818110610e22575050500390f35b82516001600160a01b0316845285945060209384019390920191600101610e14565b82546001600160a01b0316845260209093019260019283019201610de3565b346100b45760203660031901126100b4576004356001600160a01b038116908190036100b4575f52600360205260405f20908154808252602082019081935f5260205f20905f5b818110610f025750505081610ec0910382610fd0565b604051918291602083019060208452518091526040830191905f5b818110610ee9575050500390f35b8251845285945060209384019390920191600101610edb565b8254845260209093019260019283019201610eaa565b805180835260209291819084018484015e5f828201840152601f01601f1916010190565b9181601f840112156100b4578235916001600160401b0383116100b457602083818601950101116100b457565b9181601f840112156100b4578235916001600160401b0383116100b4576020808501948460051b0101116100b457565b606081019081106001600160401b038211176104f657604052565b61012081019081106001600160401b038211176104f657604052565b90601f801991011681019081106001600160401b038211176104f657604052565b8054821015611006575f5260205f2001905f90565b634e487b7160e01b5f52603260045260245ffd5b90600182811c92168015611048575b602083101461103457565b634e487b7160e01b5f52602260045260245ffd5b91607f1691611029565b9060405191825f8254926110658461101a565b80845293600181169081156110d0575060011461108c575b5061108a92500383610fd0565b565b90505f9291925260205f20905f915b8183106110b457505090602061108a928201015f61107d565b602091935080600191548385890101520191019091849261109b565b90506020925061108a94915060ff191682840152151560051b8201015f61107d565b9291926001600160401b0382116104f6576040519161111b601f8201601f191660200184610fd0565b8294818452818301116100b4578281602093845f960137010152565b91908110156110065760051b019056fea26469706673582212208218e3a88bdd47996ae9dfcb7bd5badc05ef2a80f93f247f218f9cec06ceb04164736f6c63430008210033","linkReferences":{}},"methodIdentifiers":{"campaignKeyForId(string)":"d7bd2751","createCampaign(string,string,address,string,uint256,string,string,address[],uint256[])":"d038eb98","getCampaign(bytes32)":"cabe0452","getClaim(bytes32,address)":"9d030de1","getCreatorCampaignKeys(address)":"82b2b306","getRecipientAt(bytes32,uint256)":"ae718d2f","getRecipients(bytes32)":"9aac9494"},"id":0}