{"abi":[{"type":"function","name":"campaignKeyForId","inputs":[{"name":"campaignId","type":"string","internalType":"string"}],"outputs":[{"name":"","type":"bytes32","internalType":"bytes32"}],"stateMutability":"pure"},{"type":"function","name":"createCampaign","inputs":[{"name":"campaignId","type":"string","internalType":"string"},{"name":"campaignCreatorAddress","type":"address","internalType":"address"},{"name":"merkleRoot","type":"string","internalType":"string"},{"name":"depth","type":"uint256","internalType":"uint256"},{"name":"hashAlgorithm","type":"string","internalType":"string"},{"name":"leafEncoding","type":"string","internalType":"string"},{"name":"recipients","type":"address[]","internalType":"address[]"},{"name":"amounts","type":"uint256[]","internalType":"uint256[]"},{"name":"payload","type":"string","internalType":"string"}],"outputs":[{"name":"campaignKey","type":"bytes32","internalType":"bytes32"}],"stateMutability":"nonpayable"},{"type":"function","name":"getAllCampaignKeys","inputs":[],"outputs":[{"name":"","type":"bytes32[]","internalType":"bytes32[]"}],"stateMutability":"view"},{"type":"function","name":"getCampaign","inputs":[{"name":"campaignKey","type":"bytes32","internalType":"bytes32"}],"outputs":[{"name":"","type":"tuple","internalType":"struct CampaignRegistry.Campaign","components":[{"name":"campaignId","type":"string","internalType":"string"},{"name":"creator","type":"address","internalType":"address"},{"name":"merkleRoot","type":"string","internalType":"string"},{"name":"leafCount","type":"uint256","internalType":"uint256"},{"name":"depth","type":"uint256","internalType":"uint256"},{"name":"hashAlgorithm","type":"string","internalType":"string"},{"name":"leafEncoding","type":"string","internalType":"string"},{"name":"exists","type":"bool","internalType":"bool"}]}],"stateMutability":"view"},{"type":"function","name":"getClaim","inputs":[{"name":"campaignKey","type":"bytes32","internalType":"bytes32"},{"name":"recipient","type":"address","internalType":"address"}],"outputs":[{"name":"","type":"tuple","internalType":"struct CampaignRegistry.Claim","components":[{"name":"amount","type":"uint256","internalType":"uint256"},{"name":"index","type":"uint256","internalType":"uint256"},{"name":"exists","type":"bool","internalType":"bool"}]}],"stateMutability":"view"},{"type":"function","name":"getCreatorCampaignKeys","inputs":[{"name":"creator","type":"address","internalType":"address"}],"outputs":[{"name":"","type":"bytes32[]","internalType":"bytes32[]"}],"stateMutability":"view"},{"type":"event","name":"CampaignCreated","inputs":[{"name":"campaignKey","type":"bytes32","indexed":true,"internalType":"bytes32"},{"name":"campaignId","type":"string","indexed":false,"internalType":"string"},{"name":"creator","type":"address","indexed":true,"internalType":"address"},{"name":"recipientCount","type":"uint256","indexed":false,"internalType":"uint256"}],"anonymous":false},{"type":"event","name":"CampaignPayloadPosted","inputs":[{"name":"campaignKey","type":"bytes32","indexed":true,"internalType":"bytes32"},{"name":"payload","type":"string","indexed":false,"internalType":"string"}],"anonymous":false},{"type":"error","name":"CampaignAlreadyExists","inputs":[{"name":"campaignKey","type":"bytes32","internalType":"bytes32"}]},{"type":"error","name":"CampaignNotFound","inputs":[{"name":"campaignKey","type":"bytes32","internalType":"bytes32"}]},{"type":"error","name":"CreatorMismatch","inputs":[{"name":"expected","type":"address","internalType":"address"},{"name":"actual","type":"address","internalType":"address"}]},{"type":"error","name":"DuplicateRecipient","inputs":[{"name":"recipient","type":"address","internalType":"address"}]},{"type":"error","name":"InvalidAmount","inputs":[]},{"type":"error","name":"InvalidRecipient","inputs":[]},{"type":"error","name":"InvalidRecipientCount","inputs":[]},{"type":"error","name":"RecipientNotFound","inputs":[{"name":"campaignKey","type":"bytes32","internalType":"bytes32"},{"name":"recipient","type":"address","internalType":"address"}]}],"bytecode":{"object":"0x60808060405234601557610fb5908161001a8239f35b5f80fdfe610180806040526004361015610013575f80fd5b5f3560e01c90816345c4949314610c9a5750806382b2b30614610c145780639d030de114610b34578063a5810d7814610248578063cabe0452146100ad5763d7bd27511461005f575f80fd5b346100a95760203660031901126100a9576004356001600160401b0381116100a95761009b6100946020923690600401610d59565b3691610e32565b818151910120604051908152f35b5f80fd5b346100a95760203660031901126100a9576004355f60e06040516100d081610df5565b6060815282602082015260606040820152826060820152826080820152606060a0820152606060c08201520152805f525f60205260405f2060405161011481610df5565b61011d82610edf565b815260018201546001600160a01b0316602082019081529061014160028401610edf565b60408201908152600384015492606083019384526004850154916080840192835261016e60058701610edf565b9360a0810194855260ff600761018660068a01610edf565b9860c08401998a520154169760e08201981580158a526102365761010060208a6102288b6102158c8c8c6101f68d8d6101d48e6040519d8d8f9e928f938452519201526101208d0190610db6565b91516001600160a01b031660408c0152518a8203601f190160608c0152610db6565b925160808901525160a088015251868203601f190160c0880152610db6565b9051848203601f190160e0860152610db6565b905115156101008301520390f35b63ce1befcb60e01b5f5260045260245ffd5b346100a9576101203660031901126100a9576004356001600160401b0381116100a957610279903690600401610d59565b6101205261014052610289610d43565b610160526044356001600160401b0381116100a9576102ac903690600401610d59565b906084356001600160401b0381116100a9576102cc903690600401610d59565b919060a4356001600160401b0381116100a9576102ed903690600401610d59565b909160c4356001600160401b0381116100a95761030e903690600401610d86565b60a0529460e4356001600160401b0381116100a957610331903690600401610d86565b9060805296610104356001600160401b0381116100a957610356903690600401610d59565b60c05260e05261016051336001600160a01b0390911603610b0f5760a051158015610b03575b610af457610391366101205161014051610e32565b6020815191012061010052610100515f525f60205260ff600760405f20015416610ade57610100515f525f60205260405f20956001600160401b036101205111610698576103df8754610e77565b601f8111610a85575b505f601f6101205111600114610a11575f9061012051610a03575b506101205160011b905f196101205160031b1c19161787555b6001870160018060a01b0361016051166bffffffffffffffffffffffff60a01b8254161790556001600160401b03821161069857819061045f6002890154610e77565b601f811161099f575b505f90601f8311600114610932575f92610927575b50508160011b915f199060031b1c19161760028601555b60a0516003860155606435600486015560058501916001600160401b0382116106985781906104c38454610e77565b601f81116108ce575b505f90601f8311600114610867575f9261085c575b50508160011b915f199060031b1c19161790555b60068301916001600160401b038211610698576105128354610e77565b601f811161080b575b505f90601f83116001146107a3576007949392915f9183610798575b50508160011b915f199060031b1c19161790555b01805460ff191660011790555f5b60a05181106106ac57610160516001600160a01b03165f908152600260205260409020805490600160401b8210156106985760018201808255821015610684575f9081526020902061010051910155600354600160401b8110156106985760018101806003558110156106845760035f5260205f20016101005150610100519055604051604081526105f5604082016101205161014051610ebf565b60a05160208301527ff06e7326656aba6aa1b1843cb7fecf5ba35e15233a4c34c11deb25205faa7cd360018060a01b036101605116928061010051930390a3604051602081527f69702d35fa30f6bf3204cd41931bdd61042bfbba9e4d5defbff745a51aa3bf516101005191806106746020820160c05160e051610ebf565b0390a26020604051610100518152f35b634e487b7160e01b5f52603260045260245ffd5b634e487b7160e01b5f52604160045260245ffd5b6106b98160a05184610eaf565b356001600160a01b038116908190036100a9576106d98285608051610eaf565b35811561078957801561077a57610100515f52600160205260405f20825f5260205260ff600260405f2001541661076757906002600193926040519061071e82610dda565b8152602081018481526040820193868552610100515f528660205260405f20905f5260205260405f20915182555185820155019051151560ff8019835416911617905501610559565b50633e91857960e01b5f5260045260245ffd5b63162908e360e11b5f5260045ffd5b634e46966960e11b5f5260045ffd5b013590508780610537565b601f19831691845f5260205f20925f5b8181106107f35750916001939185600798979694106107da575b505050811b01905561054b565b01355f19600384901b60f8161c191690558780806107cd565b919360206001819287870135815501950192016107b3565b8281111561051b57835f5260205f20601f840160051c9060208510610854575b81601f9101920160051c03905f5b82811061084757505061051b565b5f82820155600101610839565b5f915061082b565b0135905088806104e1565b909150601f19831691845f5260205f20925f5b8181106108b6575090846001959493921061089d575b505050811b0190556104f5565b01355f19600384901b60f8161c19169055888080610890565b9193602060018192878701358155019501920161087a565b828111156104cc57909150835f5260205f20601f840160051c906020851061091f575b849392601f0160051c82900391015f5b82811061090f5750506104cc565b5f81830155859450600101610901565b5f91506108f1565b01359050898061047d565b909250600288015f5260205f20905f935b601f1984168510610987576001945083601f1981161061096e575b505050811b016002860155610494565b01355f19600384901b60f8161c1916905589808061095e565b81810135835560209485019460019093019201610943565b8281111561046857909150600288015f5260205f20601f840160051c90602085106109fb575b92909184925f945b81601f840160051c0386106109e6575050509091610468565b5f8183018701556001909501948694506109cd565b5f91506109c5565b90506101405101358a610403565b875f5260205f20905f5b61012051601f19168110610a6a575061012051601f19811610610a4b575b5050600161012051811b01875561041c565b5f1960f86101205160031b161c19906101405101351690558980610a39565b90916020600181928561014051013581550193019101610a1b565b610120518111156103e857875f5260205f20601f610120510160051c9060206101205110610ad6575b5f5b82601f850160051c038110610ac7575050506103e8565b5f828401820155600101610ab0565b5f9150610aae565b63495a9e0160e11b5f526101005160045260245ffd5b6306b1243960e11b5f5260045ffd5b508760a051141561037c565b637cccf62b60e01b5f908152610160516001600160a01b031660045233602452604490fd5b346100a95760403660031901126100a957600435610b50610d43565b905f60408051610b5f81610dda565b8281528260208201520152805f525f60205260ff600760405f200154161561023657805f52600160205260405f2060018060a01b0383165f5260205260405f209060405191610bad83610dda565b8054835260ff6002600183015492602086019384520154169160408401921580158452610bf0575060609350604051925183525160208301525115156040820152f35b6331e0f51f60e11b5f9081526004919091526001600160a01b038516602452604490fd5b346100a95760203660031901126100a9576004356001600160a01b038116908190036100a9575f52600260205260405f206040519081602082549182815201915f5260205f20905f5b818110610c8457610c8085610c7481870382610e11565b60405191829182610d0a565b0390f35b8254845260209093019260019283019201610c5d565b346100a9575f3660031901126100a957600354808252602082019060035f527fc2575a0e9e593c00f959f8c92f12db2869c3395a3b0502d05e2516446f71f85b905f5b818110610cf457610c8085610c7481870382610e11565b8254845260209093019260019283019201610cdd565b60206040818301928281528451809452019201905f5b818110610d2d5750505090565b8251845260209384019390920191600101610d20565b602435906001600160a01b03821682036100a957565b9181601f840112156100a9578235916001600160401b0383116100a957602083818601950101116100a957565b9181601f840112156100a9578235916001600160401b0383116100a9576020808501948460051b0101116100a957565b805180835260209291819084018484015e5f828201840152601f01601f1916010190565b606081019081106001600160401b0382111761069857604052565b61010081019081106001600160401b0382111761069857604052565b90601f801991011681019081106001600160401b0382111761069857604052565b9291926001600160401b0382116106985760405191610e5b601f8201601f191660200184610e11565b8294818452818301116100a9578281602093845f960137010152565b90600182811c92168015610ea5575b6020831014610e9157565b634e487b7160e01b5f52602260045260245ffd5b91607f1691610e86565b91908110156106845760051b0190565b908060209392818452848401375f828201840152601f01601f1916010190565b9060405191825f825492610ef284610e77565b8084529360018116908115610f5d5750600114610f19575b50610f1792500383610e11565b565b90505f9291925260205f20905f915b818310610f41575050906020610f17928201015f610f0a565b6020919350806001915483858901015201910190918492610f28565b905060209250610f1794915060ff191682840152151560051b8201015f610f0a56fea26469706673582212200a2921ec86a3c5500da57d22241bd8c7c078f058f576010fa92e6418f9784bed64736f6c63430008210033","linkReferences":{}},"methodIdentifiers":{"campaignKeyForId(string)":"d7bd2751","createCampaign(string,address,string,uint256,string,string,address[],uint256[],string)":"a5810d78","getAllCampaignKeys()":"45c49493","getCampaign(bytes32)":"cabe0452","getClaim(bytes32,address)":"9d030de1","getCreatorCampaignKeys(address)":"82b2b306"},"id":0}