{"abi":[{"type":"constructor","inputs":[{"name":"verifier_","type":"address","internalType":"address"},{"name":"eligibleRoot_","type":"bytes32","internalType":"bytes32"},{"name":"expectedMessage_","type":"bytes8","internalType":"bytes8"},{"name":"payoutAmount_","type":"uint256","internalType":"uint256"}],"stateMutability":"payable"},{"type":"receive","stateMutability":"payable"},{"type":"function","name":"PUBLIC_INPUTS_LENGTH","inputs":[],"outputs":[{"name":"","type":"uint256","internalType":"uint256"}],"stateMutability":"view"},{"type":"function","name":"claim","inputs":[{"name":"proof","type":"bytes","internalType":"bytes"},{"name":"publicInputs","type":"bytes32[]","internalType":"bytes32[]"}],"outputs":[{"name":"stealthRecipient","type":"address","internalType":"address"}],"stateMutability":"nonpayable"},{"type":"function","name":"decodeStealthAddress","inputs":[{"name":"publicInputs","type":"bytes32[]","internalType":"bytes32[]"}],"outputs":[{"name":"","type":"address","internalType":"address"}],"stateMutability":"pure"},{"type":"function","name":"eligibleRoot","inputs":[],"outputs":[{"name":"","type":"bytes32","internalType":"bytes32"}],"stateMutability":"view"},{"type":"function","name":"expectedMessage","inputs":[],"outputs":[{"name":"","type":"bytes8","internalType":"bytes8"}],"stateMutability":"view"},{"type":"function","name":"nullifierUsed","inputs":[{"name":"","type":"bytes32","internalType":"bytes32"}],"outputs":[{"name":"","type":"bool","internalType":"bool"}],"stateMutability":"view"},{"type":"function","name":"owner","inputs":[],"outputs":[{"name":"","type":"address","internalType":"address"}],"stateMutability":"view"},{"type":"function","name":"payoutAmount","inputs":[],"outputs":[{"name":"","type":"uint256","internalType":"uint256"}],"stateMutability":"view"},{"type":"function","name":"previewClaim","inputs":[{"name":"publicInputs","type":"bytes32[]","internalType":"bytes32[]"}],"outputs":[{"name":"preview","type":"tuple","internalType":"struct ZusProtocol.ClaimPreview","components":[{"name":"eligibleRoot","type":"bytes32","internalType":"bytes32"},{"name":"nullifierHash","type":"bytes32","internalType":"bytes32"},{"name":"stealthRecipient","type":"address","internalType":"address"},{"name":"alreadyClaimed","type":"bool","internalType":"bool"},{"name":"payoutAmount","type":"uint256","internalType":"uint256"}]}],"stateMutability":"view"},{"type":"function","name":"sweep","inputs":[{"name":"recipient","type":"address","internalType":"address payable"},{"name":"amount","type":"uint256","internalType":"uint256"}],"outputs":[],"stateMutability":"nonpayable"},{"type":"function","name":"verifier","inputs":[],"outputs":[{"name":"","type":"address","internalType":"contract IVerifier"}],"stateMutability":"view"},{"type":"event","name":"Claimed","inputs":[{"name":"caller","type":"address","indexed":true,"internalType":"address"},{"name":"stealthRecipient","type":"address","indexed":true,"internalType":"address"},{"name":"nullifierHash","type":"bytes32","indexed":true,"internalType":"bytes32"},{"name":"payoutAmount","type":"uint256","indexed":false,"internalType":"uint256"}],"anonymous":false},{"type":"event","name":"Funded","inputs":[{"name":"funder","type":"address","indexed":true,"internalType":"address"},{"name":"amount","type":"uint256","indexed":false,"internalType":"uint256"}],"anonymous":false},{"type":"event","name":"Sweep","inputs":[{"name":"recipient","type":"address","indexed":true,"internalType":"address"},{"name":"amount","type":"uint256","indexed":false,"internalType":"uint256"}],"anonymous":false},{"type":"error","name":"InsufficientBalance","inputs":[{"name":"available","type":"uint256","internalType":"uint256"},{"name":"required","type":"uint256","internalType":"uint256"}]},{"type":"error","name":"InvalidPayoutAmount","inputs":[]},{"type":"error","name":"InvalidProof","inputs":[]},{"type":"error","name":"InvalidPublicInputsLength","inputs":[{"name":"actualLength","type":"uint256","internalType":"uint256"}]},{"type":"error","name":"InvalidStealthAddress","inputs":[{"name":"actualWord","type":"bytes32","internalType":"bytes32"}]},{"type":"error","name":"InvalidVerifier","inputs":[]},{"type":"error","name":"NotOwner","inputs":[]},{"type":"error","name":"NullifierAlreadyUsed","inputs":[{"name":"nullifierHash","type":"bytes32","internalType":"bytes32"}]},{"type":"error","name":"PayoutFailed","inputs":[]},{"type":"error","name":"UnexpectedEligibleRoot","inputs":[{"name":"actualRoot","type":"bytes32","internalType":"bytes32"},{"name":"expectedRoot","type":"bytes32","internalType":"bytes32"}]},{"type":"error","name":"UnexpectedMessageByte","inputs":[{"name":"index","type":"uint256","internalType":"uint256"},{"name":"actualWord","type":"bytes32","internalType":"bytes32"},{"name":"expectedByte","type":"uint8","internalType":"uint8"}]},{"type":"error","name":"UnexpectedPublicByte","inputs":[{"name":"index","type":"uint256","internalType":"uint256"},{"name":"actualWord","type":"bytes32","internalType":"bytes32"}]}],"bytecode":{"object":"0x610120601f610bf638819003918201601f19168301916001600160401b0383118484101761014d578084926080946040528339810103126101495780516001600160a01b03811691908290036101495760208101516040820151916001600160c01b031983168303610149576060015192801561013a57831561012b576080523360a05260c05260e05261010052346100fa575b604051610a949081610162823960805181818161042201526106a8015260a0518181816102c201526105bc015260c0518181816101e60152610889015260e0518181816106e9015261082c0152610100518181816101800152818161038801526106700152f35b6040513481527f5af8184bef8e4b45eb9f6ed7734d04da38ced226495548f46e0c8ff8d7d9a52460203392a2610093565b63e5baf2c160e01b5f5260045ffd5b63baa3de5f60e01b5f5260045ffd5b5f80fd5b634e487b7160e01b5f52604160045260245ffdfe6080806040526004361015610048575b50361561001a575f80fd5b6040513481527f5af8184bef8e4b45eb9f6ed7734d04da38ced226495548f46e0c8ff8d7d9a52460203392a2005b5f3560e01c9081631d079106146106d7575080632b7ac3f3146106935780636b46c8c3146106595780636ea056a9146105915780637ecf686d146105635780638923586d146102f15780638da5cb5b146102ad578063976398fd14610292578063ccc28ec414610209578063d38b2ce4146101cf5763f2bc1ace146100cd575f61000f565b346101cb5760203660031901126101cb5760043567ffffffffffffffff81116101cb5761012f61010360a0923690600401610719565b905f60806040516101138161074a565b82815282602082015282604082015282606082015201526107eb565b8051906020810151906040600180861b0391015116815f525f60205260ff60405f2054169060806040516101628161074a565b858152602081019485526040810192835260608101931515845201927f00000000000000000000000000000000000000000000000000000000000000008452604051948552516020850152600180861b0390511660408401525115156060830152516080820152f35b5f80fd5b346101cb575f3660031901126101cb5760206040517f00000000000000000000000000000000000000000000000000000000000000008152f35b346101cb5760203660031901126101cb5760043567ffffffffffffffff81116101cb5761023a903690600401610719565b604a8103610280576049101561026c5761025a6109206020920135610a32565b6040516001600160a01b039091168152f35b634e487b7160e01b5f52603260045260245ffd5b631d75bf0560e01b5f5260045260245ffd5b346101cb575f3660031901126101cb576020604051604a8152f35b346101cb575f3660031901126101cb576040517f00000000000000000000000000000000000000000000000000000000000000006001600160a01b03168152602090f35b346101cb5760403660031901126101cb5760043567ffffffffffffffff81116101cb57366023820112156101cb57806004013567ffffffffffffffff81116101cb5736602482840101116101cb5760243567ffffffffffffffff81116101cb5761035f903690600401610719565b9261036a84836107eb565b91602083019485515f525f60205260ff60405f20541661054f5747947f00000000000000000000000000000000000000000000000000000000000000008096106105385780602460405195633a94343960e21b8752604060048801528260448801520160648601375f60648286010152601f801991011683019160031960648585030101602485015281606484015260018060fb1b0382116101cb57836064602094928593839560051b8092608483013701010301817f00000000000000000000000000000000000000000000000000000000000000006001600160a01b03165afa90811561052d575f916104f2575b50156104e35782515f525f60205260405f20600160ff19825416179055604060018060a01b0391015116905f80808084865af161049561079c565b50156104d4578160209351916040519081527f9780ca5401356db2895e17979114ec3dfd012f98c5e620049726a235a2a5d711853392a4604051908152f35b630ec6ac4160e21b5f5260045ffd5b6309bde33960e01b5f5260045ffd5b90506020813d602011610525575b8161050d6020938361077a565b810103126101cb575180151581036101cb578461045a565b3d9150610500565b6040513d5f823e3d90fd5b854763cf47918160e01b5f5260045260245260445ffd5b8551632920f74160e21b5f5260045260245ffd5b346101cb5760203660031901126101cb576004355f525f602052602060ff60405f2054166040519015158152f35b346101cb5760403660031901126101cb576004356001600160a01b038116908190036101cb576024357f00000000000000000000000000000000000000000000000000000000000000006001600160a01b0316330361064a57804710610634575f80808084865af161060161079c565b50156104d45760207fab2246061d7b0dd3631d037e3f6da75782ae489eeb9f6af878a4b25df9b07c7791604051908152a2005b4763cf47918160e01b5f5260045260245260445ffd5b6330cd747160e01b5f5260045ffd5b346101cb575f3660031901126101cb5760206040517f00000000000000000000000000000000000000000000000000000000000000008152f35b346101cb575f3660031901126101cb576040517f00000000000000000000000000000000000000000000000000000000000000006001600160a01b03168152602090f35b346101cb575f3660031901126101cb577f00000000000000000000000000000000000000000000000000000000000000006001600160c01b0319168152602090f35b9181601f840112156101cb5782359167ffffffffffffffff83116101cb576020808501948460051b0101116101cb57565b60a0810190811067ffffffffffffffff82111761076657604052565b634e487b7160e01b5f52604160045260245ffd5b90601f8019910116810190811067ffffffffffffffff82111761076657604052565b3d156107d6573d9067ffffffffffffffff821161076657604051916107cb601f8201601f19166020018461077a565b82523d5f602084013e565b606090565b919081101561026c5760051b0190565b9190604051926060840184811067ffffffffffffffff821117610766576040525f845260208401915f835260408501925f845285604a8303610a1f576040517f00000000000000000000000000000000000000000000000000000000000000006001600160c01b03191660208201526008815261086960288261077a565b5f5b600881106109ca575050826008101561026c576101008401358091527f0000000000000000000000000000000000000000000000000000000000000000908181036109b55750505f5f5b6020811061097957505f5f5b60208110610912575060405190602082019283526040820152604081526108e960608261077a565b51902090526049101561026c576001600160a01b039061090d906109200135610a32565b169052565b908160290190816029116109655761092b8287896107db565b359160ff8311610943575060081b17906001016108c1565b61094e81888a6107db565b3590633ec5fa4160e11b5f5260045260245260445ffd5b634e487b7160e01b5f52601160045260245ffd5b90816009019081600911610965576109928286886107db565b359160ff83116109aa575060081b17906001016108b5565b61094e8187896107db565b63cdb92c6360e01b5f5260045260245260445ffd5b6109d58186886107db565b35825182101561026c576020828401015160f81c8091036109f9575060010161086b565b90610a058187896107db565b3590633cafba0360e11b5f5260045260245260445260645ffd5b82631d75bf0560e01b5f5260045260245ffd5b6001600160a01b038111610a4c576001600160a01b031690565b63375fdc8d60e11b5f5260045260245ffdfea2646970667358221220909e3ccdee405bf9da1ad34bb5b0a195b3a36b04438eea62d633d7bfc1e5cbfb64736f6c63430008210033","linkReferences":{}},"methodIdentifiers":{"PUBLIC_INPUTS_LENGTH()":"976398fd","claim(bytes,bytes32[])":"8923586d","decodeStealthAddress(bytes32[])":"ccc28ec4","eligibleRoot()":"d38b2ce4","expectedMessage()":"1d079106","nullifierUsed(bytes32)":"7ecf686d","owner()":"8da5cb5b","payoutAmount()":"6b46c8c3","previewClaim(bytes32[])":"f2bc1ace","sweep(address,uint256)":"6ea056a9","verifier()":"2b7ac3f3"},"id":1}