{"abi":[{"type":"function","name":"PUBLIC_INPUTS_LENGTH","inputs":[],"outputs":[{"name":"","type":"uint256","internalType":"uint256"}],"stateMutability":"view"},{"type":"function","name":"campaigns","inputs":[{"name":"","type":"bytes32","internalType":"bytes32"}],"outputs":[{"name":"owner","type":"address","internalType":"address"},{"name":"verifier","type":"address","internalType":"address"},{"name":"eligibleRoot","type":"bytes32","internalType":"bytes32"},{"name":"expectedMessage","type":"bytes8","internalType":"bytes8"},{"name":"payoutAmount","type":"uint256","internalType":"uint256"},{"name":"balance","type":"uint256","internalType":"uint256"},{"name":"exists","type":"bool","internalType":"bool"}],"stateMutability":"view"},{"type":"function","name":"claim","inputs":[{"name":"campaignId","type":"bytes32","internalType":"bytes32"},{"name":"proof","type":"bytes","internalType":"bytes"},{"name":"publicInputs","type":"bytes32[]","internalType":"bytes32[]"}],"outputs":[{"name":"stealthRecipient","type":"address","internalType":"address"}],"stateMutability":"nonpayable"},{"type":"function","name":"createCampaign","inputs":[{"name":"campaignId","type":"bytes32","internalType":"bytes32"},{"name":"verifier","type":"address","internalType":"address"},{"name":"eligibleRoot","type":"bytes32","internalType":"bytes32"},{"name":"expectedMessage","type":"bytes8","internalType":"bytes8"},{"name":"payoutAmount","type":"uint256","internalType":"uint256"}],"outputs":[],"stateMutability":"payable"},{"type":"function","name":"decodeStealthAddress","inputs":[{"name":"publicInputs","type":"bytes32[]","internalType":"bytes32[]"}],"outputs":[{"name":"","type":"address","internalType":"address"}],"stateMutability":"pure"},{"type":"function","name":"fundCampaign","inputs":[{"name":"campaignId","type":"bytes32","internalType":"bytes32"}],"outputs":[],"stateMutability":"payable"},{"type":"function","name":"nullifierUsed","inputs":[{"name":"","type":"bytes32","internalType":"bytes32"},{"name":"","type":"bytes32","internalType":"bytes32"}],"outputs":[{"name":"","type":"bool","internalType":"bool"}],"stateMutability":"view"},{"type":"function","name":"previewClaim","inputs":[{"name":"campaignId","type":"bytes32","internalType":"bytes32"},{"name":"publicInputs","type":"bytes32[]","internalType":"bytes32[]"}],"outputs":[{"name":"preview","type":"tuple","internalType":"struct ZusProtocol.ClaimPreview","components":[{"name":"eligibleRoot","type":"bytes32","internalType":"bytes32"},{"name":"nullifierHash","type":"bytes32","internalType":"bytes32"},{"name":"stealthRecipient","type":"address","internalType":"address"},{"name":"payoutAmount","type":"uint256","internalType":"uint256"},{"name":"campaignBalance","type":"uint256","internalType":"uint256"},{"name":"alreadyClaimed","type":"bool","internalType":"bool"}]}],"stateMutability":"view"},{"type":"function","name":"withdrawCampaignBalance","inputs":[{"name":"campaignId","type":"bytes32","internalType":"bytes32"},{"name":"recipient","type":"address","internalType":"address payable"},{"name":"amount","type":"uint256","internalType":"uint256"}],"outputs":[],"stateMutability":"nonpayable"},{"type":"event","name":"CampaignCreated","inputs":[{"name":"campaignId","type":"bytes32","indexed":true,"internalType":"bytes32"},{"name":"owner","type":"address","indexed":true,"internalType":"address"},{"name":"verifier","type":"address","indexed":true,"internalType":"address"},{"name":"eligibleRoot","type":"bytes32","indexed":false,"internalType":"bytes32"},{"name":"expectedMessage","type":"bytes8","indexed":false,"internalType":"bytes8"},{"name":"payoutAmount","type":"uint256","indexed":false,"internalType":"uint256"},{"name":"initialBalance","type":"uint256","indexed":false,"internalType":"uint256"}],"anonymous":false},{"type":"event","name":"CampaignFunded","inputs":[{"name":"campaignId","type":"bytes32","indexed":true,"internalType":"bytes32"},{"name":"funder","type":"address","indexed":true,"internalType":"address"},{"name":"amount","type":"uint256","indexed":false,"internalType":"uint256"},{"name":"newBalance","type":"uint256","indexed":false,"internalType":"uint256"}],"anonymous":false},{"type":"event","name":"CampaignWithdrawn","inputs":[{"name":"campaignId","type":"bytes32","indexed":true,"internalType":"bytes32"},{"name":"recipient","type":"address","indexed":true,"internalType":"address"},{"name":"amount","type":"uint256","indexed":false,"internalType":"uint256"},{"name":"remainingBalance","type":"uint256","indexed":false,"internalType":"uint256"}],"anonymous":false},{"type":"event","name":"Claimed","inputs":[{"name":"campaignId","type":"bytes32","indexed":true,"internalType":"bytes32"},{"name":"caller","type":"address","indexed":true,"internalType":"address"},{"name":"stealthRecipient","type":"address","indexed":true,"internalType":"address"},{"name":"nullifierHash","type":"bytes32","indexed":false,"internalType":"bytes32"},{"name":"payoutAmount","type":"uint256","indexed":false,"internalType":"uint256"}],"anonymous":false},{"type":"error","name":"CampaignAlreadyExists","inputs":[{"name":"campaignId","type":"bytes32","internalType":"bytes32"}]},{"type":"error","name":"CampaignNotFound","inputs":[{"name":"campaignId","type":"bytes32","internalType":"bytes32"}]},{"type":"error","name":"InsufficientCampaignBalance","inputs":[{"name":"campaignId","type":"bytes32","internalType":"bytes32"},{"name":"available","type":"uint256","internalType":"uint256"},{"name":"required","type":"uint256","internalType":"uint256"}]},{"type":"error","name":"InvalidCampaignId","inputs":[]},{"type":"error","name":"InvalidFundingAmount","inputs":[]},{"type":"error","name":"InvalidPayoutAmount","inputs":[]},{"type":"error","name":"InvalidProof","inputs":[]},{"type":"error","name":"InvalidPublicInputsLength","inputs":[{"name":"actualLength","type":"uint256","internalType":"uint256"}]},{"type":"error","name":"InvalidStealthAddress","inputs":[{"name":"actualWord","type":"bytes32","internalType":"bytes32"}]},{"type":"error","name":"InvalidVerifier","inputs":[]},{"type":"error","name":"NotCampaignOwner","inputs":[{"name":"campaignId","type":"bytes32","internalType":"bytes32"},{"name":"caller","type":"address","internalType":"address"}]},{"type":"error","name":"NullifierAlreadyUsed","inputs":[{"name":"campaignId","type":"bytes32","internalType":"bytes32"},{"name":"nullifierHash","type":"bytes32","internalType":"bytes32"}]},{"type":"error","name":"PayoutFailed","inputs":[]},{"type":"error","name":"UnexpectedEligibleRoot","inputs":[{"name":"actualRoot","type":"bytes32","internalType":"bytes32"},{"name":"expectedRoot","type":"bytes32","internalType":"bytes32"}]},{"type":"error","name":"UnexpectedMessageByte","inputs":[{"name":"index","type":"uint256","internalType":"uint256"},{"name":"actualWord","type":"bytes32","internalType":"bytes32"},{"name":"expectedByte","type":"uint8","internalType":"uint8"}]},{"type":"error","name":"UnexpectedPublicByte","inputs":[{"name":"index","type":"uint256","internalType":"uint256"},{"name":"actualWord","type":"bytes32","internalType":"bytes32"}]}],"bytecode":{"object":"0x60808060405234601557610c3a908161001a8239f35b5f80fdfe60806040526004361015610011575f80fd5b5f3560e01c806322fb7bc5146108015780637d2fbc97146107c657806389312132146105db578063976398fd146105c05780639eca2f1e14610532578063bc94207b14610417578063bc9d87f31461038e578063c68dc7d7146101085763ccc28ec41461007c575f80fd5b34610104576020366003190112610104576004356001600160401b038111610104576100ac9036906004016108db565b604a81036100f257604910156100de576100cc6109206020920135610bd8565b6040516001600160a01b039091168152f35b634e487b7160e01b5f52603260045260245ffd5b631d75bf0560e01b5f5260045260245ffd5b5f80fd5b34610104576060366003190112610104576004356024356001600160401b0381116101045736602382011215610104578060040135906001600160401b038211610104573660248383010111610104576044356001600160401b038111610104576101779036906004016108db565b9190610182856109a2565b9161018e8483856109d7565b91865f52600160205260405f2094602084019586515f5260205260ff60405f205416610375576005850196875495600481019687549081811061035c5750506001808060a01b03910154169080602460405196633a94343960e21b8852604060048901528260448901520160648701375f60648287010152601f801991011684019160031960648685030101602486015280606484015260018060fb1b03811161010457602085606482968296839560051b8092608483013701010301915afa908115610351575f91610316575b5015610307575f808080938882526001602052604082208751835260205260408220600160ff1982541617905585549761029789825461090b565b9055604001516001600160a01b031696875af16102b2610954565b50156102f8576020938392519154604051928352858301527f1c7f9afb6749f730f83022821444a70a6df5332a43f51093a3a4f9b7fa1a4fb160403393a4604051908152f35b630ec6ac4160e21b5f5260045ffd5b6309bde33960e01b5f5260045ffd5b90506020813d602011610349575b8161033160209383610933565b8101031261010457518015158103610104578661025c565b3d9150610324565b6040513d5f823e3d90fd5b8b635e5ac00960e01b5f5260045260245260445260645ffd5b878651906374262db760e01b5f5260045260245260445ffd5b60203660031901126101045760043534156104085760056103ae826109a2565b01908154913483018093116103f4578290556040519134835260208301527fcd7c73014b36f7019301ea9a92469a41f39b6b7ca36c415b39fb080d663df2a560403393a3005b634e487b7160e01b5f52601160045260245ffd5b632ec86ff560e21b5f5260045ffd5b34610104576040366003190112610104576004356024356001600160401b0381116101045760c09161045061048f9236906004016108db565b5f60a060409593955161046281610918565b8281528260208201528260408201528260608201528260808201520152610488836109a2565b93846109d7565b9081519260208301805193604060018060a01b03910151169060056004840154930154935f52600160205260405f2090515f5260205260ff60405f2054169360a06040516104dc81610918565b8781526020810192835260408101938452606081019485526080810195865201941515855260405195865251602086015260018060a01b03905116604085015251606084015251608083015251151560a0820152f35b34610104576020366003190112610104576004355f525f60205260e060405f2060018060a01b038154169060018060a01b03600182015416906002810154600382015460c01b60048301549160ff600660058601549501541694604051968752602087015260408601526001600160401b0360c01b166060850152608084015260a0830152151560c0820152f35b34610104575f366003190112610104576020604051604a8152f35b60a0366003190112610104576024356001600160a01b038116906004359082900361010457604435906064356001600160401b0360c01b8116809103610104576084359082156107b75784156107a857811561079957825f525f60205260ff600660405f200154166107865760405160e081018181106001600160401b0382111761077257604052338152600660208201918783526040810187815260608201858152608083019087825260a084019234845260c0850196600188528a5f525f60205260405f209560018060a01b039060018060a01b03905116166bffffffffffffffffffffffff60a01b87541617865560018060a01b03905116600186019060018060a01b03166bffffffffffffffffffffffff60a01b82541617905551600285015560038401905160c01c6001600160401b0319825416179055516004830155516005820155019051151560ff80198354169116179055604051938452602084015260408301523460608301527fcc857ef90d07964a42fb5a4c87effa33febbc07cdc7318aa5bdd2040bbe7a2ea60803393a4005b634e487b7160e01b5f52604160045260245ffd5b8263495a9e0160e11b5f5260045260245ffd5b63e5baf2c160e01b5f5260045ffd5b63baa3de5f60e01b5f5260045ffd5b636824bccd60e01b5f5260045ffd5b34610104576040366003190112610104576004355f52600160205260405f206024355f52602052602060ff60405f2054166040519015158152f35b34610104576060366003190112610104576024356001600160a01b038116906004359082900361010457604435610837826109a2565b80546001600160a01b031633036108c45760050180548281106108a9578261085e9161090b565b81555f80808085885af1610870610954565b50156102f8577f8893b26a41176541536baf236592682bf58748fbffd995484c9bced07df42732916040915482519182526020820152a3005b905082635e5ac00960e01b5f5260045260245260445260645ffd5b826319ac666560e01b5f526004523360245260445ffd5b9181601f84011215610104578235916001600160401b038311610104576020808501948460051b01011161010457565b919082039182116103f457565b60c081019081106001600160401b0382111761077257604052565b90601f801991011681019081106001600160401b0382111761077257604052565b3d1561098d573d906001600160401b0382116107725760405191610982601f8201601f191660200184610933565b82523d5f602084013e565b606090565b91908110156100de5760051b0190565b9081156107b757815f525f60205260405f209160ff600684015416156109c55750565b63ce1befcb60e01b5f5260045260245ffd5b92919060405191606083018381106001600160401b03821117610772576040525f8352602083015f815260408401935f85528096604a8403610bc557600381015460c01b604051906001600160401b0360c01b16602082015260088152610a3f602882610933565b5f5b60088110610b7057505083600810156100de57600290610100860135809352015490818103610b5b5750505f5f5b60208110610b1f57505f5f5b60208110610acc57506040519060208201928352604082015260408152610aa3606082610933565b5190209052604910156100de576001600160a01b0390610ac7906109200135610bd8565b169052565b908160290190816029116103f457610ae5828789610992565b359160ff8311610afd575060081b1790600101610a7b565b610b0881888a610992565b3590633ec5fa4160e11b5f5260045260245260445ffd5b908160090190816009116103f457610b38828688610992565b359160ff8311610b50575060081b1790600101610a6f565b610b08818789610992565b63cdb92c6360e01b5f5260045260245260445ffd5b610b7b818789610992565b3582518210156100de576020828401015160f81c809103610b9f5750600101610a41565b90610bab81888a610992565b3590633cafba0360e11b5f5260045260245260445260645ffd5b83631d75bf0560e01b5f5260045260245ffd5b6001600160a01b038111610bf2576001600160a01b031690565b63375fdc8d60e11b5f5260045260245ffdfea2646970667358221220625690b0fda2cb703ea2ad19e68603d46f82e158e90e99287f305d1af8164ed364736f6c63430008210033","linkReferences":{}},"methodIdentifiers":{"PUBLIC_INPUTS_LENGTH()":"976398fd","campaigns(bytes32)":"9eca2f1e","claim(bytes32,bytes,bytes32[])":"c68dc7d7","createCampaign(bytes32,address,bytes32,bytes8,uint256)":"89312132","decodeStealthAddress(bytes32[])":"ccc28ec4","fundCampaign(bytes32)":"bc9d87f3","nullifierUsed(bytes32,bytes32)":"7d2fbc97","previewClaim(bytes32,bytes32[])":"bc94207b","withdrawCampaignBalance(bytes32,address,uint256)":"22fb7bc5"},"id":1}